{
  "_format": "hh-sol-artifact-1",
  "contractName": "PongGameResult",
  "sourceName": "contracts/PongGameResult.sol",
  "abi": [
    {
      "inputs": [
        {
          "internalType": "uint256",
          "name": "_matchId",
          "type": "uint256"
        },
        {
          "internalType": "uint256",
          "name": "_player1Score",
          "type": "uint256"
        },
        {
          "internalType": "uint256",
          "name": "_player2Score",
          "type": "uint256"
        },
        {
          "internalType": "string",
          "name": "_winnerName",
          "type": "string"
        },
        {
          "internalType": "string",
          "name": "_loserName",
          "type": "string"
        }
      ],
      "name": "addGameResult",
      "outputs": [],
      "stateMutability": "nonpayable",
      "type": "function"
    },
    {
      "inputs": [
        {
          "internalType": "uint256",
          "name": "",
          "type": "uint256"
        }
      ],
      "name": "gameResults",
      "outputs": [
        {
          "internalType": "uint256",
          "name": "matchId",
          "type": "uint256"
        },
        {
          "internalType": "uint256",
          "name": "player1Score",
          "type": "uint256"
        },
        {
          "internalType": "uint256",
          "name": "player2Score",
          "type": "uint256"
        },
        {
          "internalType": "string",
          "name": "winnerName",
          "type": "string"
        },
        {
          "internalType": "string",
          "name": "loserName",
          "type": "string"
        },
        {
          "internalType": "uint256",
          "name": "date",
          "type": "uint256"
        }
      ],
      "stateMutability": "view",
      "type": "function"
    },
    {
      "inputs": [],
      "name": "getAllGameResults",
      "outputs": [
        {
          "components": [
            {
              "internalType": "uint256",
              "name": "matchId",
              "type": "uint256"
            },
            {
              "internalType": "uint256",
              "name": "player1Score",
              "type": "uint256"
            },
            {
              "internalType": "uint256",
              "name": "player2Score",
              "type": "uint256"
            },
            {
              "internalType": "string",
              "name": "winnerName",
              "type": "string"
            },
            {
              "internalType": "string",
              "name": "loserName",
              "type": "string"
            },
            {
              "internalType": "uint256",
              "name": "date",
              "type": "uint256"
            }
          ],
          "internalType": "struct PongGameResult.GameResult[]",
          "name": "",
          "type": "tuple[]"
        }
      ],
      "stateMutability": "view",
      "type": "function"
    },
    {
      "inputs": [
        {
          "internalType": "uint256",
          "name": "index",
          "type": "uint256"
        }
      ],
      "name": "getGameResult",
      "outputs": [
        {
          "components": [
            {
              "internalType": "uint256",
              "name": "matchId",
              "type": "uint256"
            },
            {
              "internalType": "uint256",
              "name": "player1Score",
              "type": "uint256"
            },
            {
              "internalType": "uint256",
              "name": "player2Score",
              "type": "uint256"
            },
            {
              "internalType": "string",
              "name": "winnerName",
              "type": "string"
            },
            {
              "internalType": "string",
              "name": "loserName",
              "type": "string"
            },
            {
              "internalType": "uint256",
              "name": "date",
              "type": "uint256"
            }
          ],
          "internalType": "struct PongGameResult.GameResult",
          "name": "",
          "type": "tuple"
        }
      ],
      "stateMutability": "view",
      "type": "function"
    },
    {
      "inputs": [
        {
          "internalType": "uint256",
          "name": "_matchId",
          "type": "uint256"
        }
      ],
      "name": "getGameResultByMatchId",
      "outputs": [
        {
          "components": [
            {
              "internalType": "uint256",
              "name": "matchId",
              "type": "uint256"
            },
            {
              "internalType": "uint256",
              "name": "player1Score",
              "type": "uint256"
            },
            {
              "internalType": "uint256",
              "name": "player2Score",
              "type": "uint256"
            },
            {
              "internalType": "string",
              "name": "winnerName",
              "type": "string"
            },
            {
              "internalType": "string",
              "name": "loserName",
              "type": "string"
            },
            {
              "internalType": "uint256",
              "name": "date",
              "type": "uint256"
            }
          ],
          "internalType": "struct PongGameResult.GameResult",
          "name": "",
          "type": "tuple"
        }
      ],
      "stateMutability": "view",
      "type": "function"
    }
  ],
  "bytecode": "0x608060405234801561001057600080fd5b50611253806100206000396000f3fe608060405234801561001057600080fd5b50600436106100575760003560e01c806324b5a05f1461005c5780632b8353871461008c578063d1d25ad4146100aa578063ed2df26d146100c6578063fdba1b7c146100f6575b600080fd5b61007660048036038101906100719190610902565b61012b565b6040516100839190610a5e565b60405180910390f35b61009461033e565b6040516100a19190610bd2565b60405180910390f35b6100c460048036038101906100bf9190610d29565b6104e9565b005b6100e060048036038101906100db9190610902565b61059e565b6040516100ed9190610a5e565b60405180910390f35b610110600480360381019061010b9190610902565b610726565b60405161012296959493929190610e35565b60405180910390f35b610133610882565b60005b6000805490508110156102fd57826000828154811061015857610157610ea4565b5b906000526020600020906006020160000154036102f0576000818154811061018357610182610ea4565b5b90600052602060002090600602016040518060c00160405290816000820154815260200160018201548152602001600282015481526020016003820180546101ca90610f02565b80601f01602080910402602001604051908101604052809291908181526020018280546101f690610f02565b80156102435780601f1061021857610100808354040283529160200191610243565b820191906000526020600020905b81548152906001019060200180831161022657829003601f168201915b5050505050815260200160048201805461025c90610f02565b80601f016020809104026020016040519081016040528092919081815260200182805461028890610f02565b80156102d55780601f106102aa576101008083540402835291602001916102d5565b820191906000526020600020905b8154815290600101906020018083116102b857829003601f168201915b50505050508152602001600582015481525050915050610339565b8080600101915050610136565b506040517f08c379a000000000000000000000000000000000000000000000000000000000815260040161033090610f7f565b60405180910390fd5b919050565b60606000805480602002602001604051908101604052809291908181526020016000905b828210156104e057838290600052602060002090600602016040518060c00160405290816000820154815260200160018201548152602001600282015481526020016003820180546103b390610f02565b80601f01602080910402602001604051908101604052809291908181526020018280546103df90610f02565b801561042c5780601f106104015761010080835404028352916020019161042c565b820191906000526020600020905b81548152906001019060200180831161040f57829003601f168201915b5050505050815260200160048201805461044590610f02565b80601f016020809104026020016040519081016040528092919081815260200182805461047190610f02565b80156104be5780601f10610493576101008083540402835291602001916104be565b820191906000526020600020905b8154815290600101906020018083116104a157829003601f168201915b5050505050815260200160058201548152505081526020019060010190610362565b50505050905090565b60006040518060c001604052808781526020018681526020018581526020018481526020018381526020014281525090806001815401808255809150506001900390600052602060002090600602016000909190919091506000820151816000015560208201518160010155604082015181600201556060820151816003019081610574919061114b565b50608082015181600401908161058a919061114b565b5060a0820151816005015550505050505050565b6105a6610882565b600082815481106105ba576105b9610ea4565b5b90600052602060002090600602016040518060c001604052908160008201548152602001600182015481526020016002820154815260200160038201805461060190610f02565b80601f016020809104026020016040519081016040528092919081815260200182805461062d90610f02565b801561067a5780601f1061064f5761010080835404028352916020019161067a565b820191906000526020600020905b81548152906001019060200180831161065d57829003601f168201915b5050505050815260200160048201805461069390610f02565b80601f01602080910402602001604051908101604052809291908181526020018280546106bf90610f02565b801561070c5780601f106106e15761010080835404028352916020019161070c565b820191906000526020600020905b8154815290600101906020018083116106ef57829003601f168201915b505050505081526020016005820154815250509050919050565b6000818154811061073657600080fd5b906000526020600020906006020160009150905080600001549080600101549080600201549080600301805461076b90610f02565b80601f016020809104026020016040519081016040528092919081815260200182805461079790610f02565b80156107e45780601f106107b9576101008083540402835291602001916107e4565b820191906000526020600020905b8154815290600101906020018083116107c757829003601f168201915b5050505050908060040180546107f990610f02565b80601f016020809104026020016040519081016040528092919081815260200182805461082590610f02565b80156108725780601f1061084757610100808354040283529160200191610872565b820191906000526020600020905b81548152906001019060200180831161085557829003601f168201915b5050505050908060050154905086565b6040518060c001604052806000815260200160008152602001600081526020016060815260200160608152602001600081525090565b6000604051905090565b600080fd5b600080fd5b6000819050919050565b6108df816108cc565b81146108ea57600080fd5b50565b6000813590506108fc816108d6565b92915050565b600060208284031215610918576109176108c2565b5b6000610926848285016108ed565b91505092915050565b610938816108cc565b82525050565b600081519050919050565b600082825260208201905092915050565b60005b8381101561097857808201518184015260208101905061095d565b60008484015250505050565b6000601f19601f8301169050919050565b60006109a08261093e565b6109aa8185610949565b93506109ba81856020860161095a565b6109c381610984565b840191505092915050565b600060c0830160008301516109e6600086018261092f565b5060208301516109f9602086018261092f565b506040830151610a0c604086018261092f565b5060608301518482036060860152610a248282610995565b91505060808301518482036080860152610a3e8282610995565b91505060a0830151610a5360a086018261092f565b508091505092915050565b60006020820190508181036000830152610a7881846109ce565b905092915050565b600081519050919050565b600082825260208201905092915050565b6000819050602082019050919050565b600060c083016000830151610ac4600086018261092f565b506020830151610ad7602086018261092f565b506040830151610aea604086018261092f565b5060608301518482036060860152610b028282610995565b91505060808301518482036080860152610b1c8282610995565b91505060a0830151610b3160a086018261092f565b508091505092915050565b6000610b488383610aac565b905092915050565b6000602082019050919050565b6000610b6882610a80565b610b728185610a8b565b935083602082028501610b8485610a9c565b8060005b85811015610bc05784840389528151610ba18582610b3c565b9450610bac83610b50565b925060208a01995050600181019050610b88565b50829750879550505050505092915050565b60006020820190508181036000830152610bec8184610b5d565b905092915050565b600080fd5b600080fd5b7f4e487b7100000000000000000000000000000000000000000000000000000000600052604160045260246000fd5b610c3682610984565b810181811067ffffffffffffffff82111715610c5557610c54610bfe565b5b80604052505050565b6000610c686108b8565b9050610c748282610c2d565b919050565b600067ffffffffffffffff821115610c9457610c93610bfe565b5b610c9d82610984565b9050602081019050919050565b82818337600083830152505050565b6000610ccc610cc784610c79565b610c5e565b905082815260208101848484011115610ce857610ce7610bf9565b5b610cf3848285610caa565b509392505050565b600082601f830112610d1057610d0f610bf4565b5b8135610d20848260208601610cb9565b91505092915050565b600080600080600060a08688031215610d4557610d446108c2565b5b6000610d53888289016108ed565b9550506020610d64888289016108ed565b9450506040610d75888289016108ed565b935050606086013567ffffffffffffffff811115610d9657610d956108c7565b5b610da288828901610cfb565b925050608086013567ffffffffffffffff811115610dc357610dc26108c7565b5b610dcf88828901610cfb565b9150509295509295909350565b610de5816108cc565b82525050565b600082825260208201905092915050565b6000610e078261093e565b610e118185610deb565b9350610e2181856020860161095a565b610e2a81610984565b840191505092915050565b600060c082019050610e4a6000830189610ddc565b610e576020830188610ddc565b610e646040830187610ddc565b8181036060830152610e768186610dfc565b90508181036080830152610e8a8185610dfc565b9050610e9960a0830184610ddc565b979650505050505050565b7f4e487b7100000000000000000000000000000000000000000000000000000000600052603260045260246000fd5b7f4e487b7100000000000000000000000000000000000000000000000000000000600052602260045260246000fd5b60006002820490506001821680610f1a57607f821691505b602082108103610f2d57610f2c610ed3565b5b50919050565b7f47616d6520726573756c74206e6f7420666f756e642e00000000000000000000600082015250565b6000610f69601683610deb565b9150610f7482610f33565b602082019050919050565b60006020820190508181036000830152610f9881610f5c565b9050919050565b60008190508160005260206000209050919050565b60006020601f8301049050919050565b600082821b905092915050565b6000600883026110017fffffffffffffffffffffffffffffffffffffffffffffffffffffffffffffffff82610fc4565b61100b8683610fc4565b95508019841693508086168417925050509392505050565b6000819050919050565b600061104861104361103e846108cc565b611023565b6108cc565b9050919050565b6000819050919050565b6110628361102d565b61107661106e8261104f565b848454610fd1565b825550505050565b600090565b61108b61107e565b611096818484611059565b505050565b5b818110156110ba576110af600082611083565b60018101905061109c565b5050565b601f8211156110ff576110d081610f9f565b6110d984610fb4565b810160208510156110e8578190505b6110fc6110f485610fb4565b83018261109b565b50505b505050565b600082821c905092915050565b600061112260001984600802611104565b1980831691505092915050565b600061113b8383611111565b9150826002028217905092915050565b6111548261093e565b67ffffffffffffffff81111561116d5761116c610bfe565b5b6111778254610f02565b6111828282856110be565b600060209050601f8311600181146111b557600084156111a3578287015190505b6111ad858261112f565b865550611215565b601f1984166111c386610f9f565b60005b828110156111eb578489015182556001820191506020850194506020810190506111c6565b868310156112085784890151611204601f891682611111565b8355505b6001600288020188555050505b50505050505056fea26469706673582212203954bfc739d3a727e070aa7068ebb756c23568635ac4806db484bba229f1bb9564736f6c63430008180033",
  "linkReferences": {},
  "deployedLinkReferences": {}
}