{
  "_format": "hh-sol-artifact-1",
  "contractName": "PongGameResult",
  "sourceName": "contracts/PongGameResult.sol",
  "abi": [
    {
      "anonymous": false,
      "inputs": [
        {
          "indexed": true,
          "internalType": "uint256",
          "name": "matchId",
          "type": "uint256"
        },
        {
          "indexed": false,
          "internalType": "uint256",
          "name": "player1Score",
          "type": "uint256"
        },
        {
          "indexed": false,
          "internalType": "uint256",
          "name": "player2Score",
          "type": "uint256"
        },
        {
          "indexed": false,
          "internalType": "string",
          "name": "winner",
          "type": "string"
        },
        {
          "indexed": false,
          "internalType": "string",
          "name": "loser",
          "type": "string"
        }
      ],
      "name": "AddGameResult",
      "type": "event"
    },
    {
      "inputs": [
        {
          "internalType": "uint256",
          "name": "_matchId",
          "type": "uint256"
        },
        {
          "internalType": "uint256",
          "name": "_player1Score",
          "type": "uint256"
        },
        {
          "internalType": "uint256",
          "name": "_player2Score",
          "type": "uint256"
        },
        {
          "internalType": "string",
          "name": "_winnerName",
          "type": "string"
        },
        {
          "internalType": "string",
          "name": "_loserName",
          "type": "string"
        }
      ],
      "name": "addGameResult",
      "outputs": [],
      "stateMutability": "nonpayable",
      "type": "function"
    },
    {
      "inputs": [
        {
          "internalType": "uint256",
          "name": "",
          "type": "uint256"
        }
      ],
      "name": "gameResults",
      "outputs": [
        {
          "internalType": "uint256",
          "name": "matchId",
          "type": "uint256"
        },
        {
          "internalType": "uint256",
          "name": "player1Score",
          "type": "uint256"
        },
        {
          "internalType": "uint256",
          "name": "player2Score",
          "type": "uint256"
        },
        {
          "internalType": "string",
          "name": "winnerName",
          "type": "string"
        },
        {
          "internalType": "string",
          "name": "loserName",
          "type": "string"
        },
        {
          "internalType": "uint256",
          "name": "date",
          "type": "uint256"
        }
      ],
      "stateMutability": "view",
      "type": "function"
    },
    {
      "inputs": [],
      "name": "getAllGameResults",
      "outputs": [
        {
          "components": [
            {
              "internalType": "uint256",
              "name": "matchId",
              "type": "uint256"
            },
            {
              "internalType": "uint256",
              "name": "player1Score",
              "type": "uint256"
            },
            {
              "internalType": "uint256",
              "name": "player2Score",
              "type": "uint256"
            },
            {
              "internalType": "string",
              "name": "winnerName",
              "type": "string"
            },
            {
              "internalType": "string",
              "name": "loserName",
              "type": "string"
            },
            {
              "internalType": "uint256",
              "name": "date",
              "type": "uint256"
            }
          ],
          "internalType": "struct PongGameResult.GameResult[]",
          "name": "",
          "type": "tuple[]"
        }
      ],
      "stateMutability": "view",
      "type": "function"
    },
    {
      "inputs": [
        {
          "internalType": "uint256",
          "name": "index",
          "type": "uint256"
        }
      ],
      "name": "getGameResult",
      "outputs": [
        {
          "components": [
            {
              "internalType": "uint256",
              "name": "matchId",
              "type": "uint256"
            },
            {
              "internalType": "uint256",
              "name": "player1Score",
              "type": "uint256"
            },
            {
              "internalType": "uint256",
              "name": "player2Score",
              "type": "uint256"
            },
            {
              "internalType": "string",
              "name": "winnerName",
              "type": "string"
            },
            {
              "internalType": "string",
              "name": "loserName",
              "type": "string"
            },
            {
              "internalType": "uint256",
              "name": "date",
              "type": "uint256"
            }
          ],
          "internalType": "struct PongGameResult.GameResult",
          "name": "",
          "type": "tuple"
        }
      ],
      "stateMutability": "view",
      "type": "function"
    },
    {
      "inputs": [
        {
          "internalType": "uint256",
          "name": "_matchId",
          "type": "uint256"
        }
      ],
      "name": "getGameResultByMatchId",
      "outputs": [
        {
          "components": [
            {
              "internalType": "uint256",
              "name": "matchId",
              "type": "uint256"
            },
            {
              "internalType": "uint256",
              "name": "player1Score",
              "type": "uint256"
            },
            {
              "internalType": "uint256",
              "name": "player2Score",
              "type": "uint256"
            },
            {
              "internalType": "string",
              "name": "winnerName",
              "type": "string"
            },
            {
              "internalType": "string",
              "name": "loserName",
              "type": "string"
            },
            {
              "internalType": "uint256",
              "name": "date",
              "type": "uint256"
            }
          ],
          "internalType": "struct PongGameResult.GameResult",
          "name": "",
          "type": "tuple"
        }
      ],
      "stateMutability": "view",
      "type": "function"
    }
  ],
  "bytecode": "0x608060405234801561001057600080fd5b506112e4806100206000396000f3fe608060405234801561001057600080fd5b50600436106100575760003560e01c806324b5a05f1461005c5780632b8353871461008c578063d1d25ad4146100aa578063ed2df26d146100c6578063fdba1b7c146100f6575b600080fd5b61007660048036038101906100719190610940565b61012b565b6040516100839190610a9c565b60405180910390f35b61009461033e565b6040516100a19190610c10565b60405180910390f35b6100c460048036038101906100bf9190610d67565b6104e9565b005b6100e060048036038101906100db9190610940565b6105dc565b6040516100ed9190610a9c565b60405180910390f35b610110600480360381019061010b9190610940565b610764565b60405161012296959493929190610e73565b60405180910390f35b6101336108c0565b60005b6000805490508110156102fd57826000828154811061015857610157610ee2565b5b906000526020600020906006020160000154036102f0576000818154811061018357610182610ee2565b5b90600052602060002090600602016040518060c00160405290816000820154815260200160018201548152602001600282015481526020016003820180546101ca90610f40565b80601f01602080910402602001604051908101604052809291908181526020018280546101f690610f40565b80156102435780601f1061021857610100808354040283529160200191610243565b820191906000526020600020905b81548152906001019060200180831161022657829003601f168201915b5050505050815260200160048201805461025c90610f40565b80601f016020809104026020016040519081016040528092919081815260200182805461028890610f40565b80156102d55780601f106102aa576101008083540402835291602001916102d5565b820191906000526020600020905b8154815290600101906020018083116102b857829003601f168201915b50505050508152602001600582015481525050915050610339565b8080600101915050610136565b506040517f08c379a000000000000000000000000000000000000000000000000000000000815260040161033090610fbd565b60405180910390fd5b919050565b60606000805480602002602001604051908101604052809291908181526020016000905b828210156104e057838290600052602060002090600602016040518060c00160405290816000820154815260200160018201548152602001600282015481526020016003820180546103b390610f40565b80601f01602080910402602001604051908101604052809291908181526020018280546103df90610f40565b801561042c5780601f106104015761010080835404028352916020019161042c565b820191906000526020600020905b81548152906001019060200180831161040f57829003601f168201915b5050505050815260200160048201805461044590610f40565b80601f016020809104026020016040519081016040528092919081815260200182805461047190610f40565b80156104be5780601f10610493576101008083540402835291602001916104be565b820191906000526020600020905b8154815290600101906020018083116104a157829003601f168201915b5050505050815260200160058201548152505081526020019060010190610362565b50505050905090565b60006040518060c0016040528087815260200186815260200185815260200184815260200183815260200142815250908060018154018082558091505060019003906000526020600020906006020160009091909190915060008201518160000155602082015181600101556040820151816002015560608201518160030190816105749190611189565b50608082015181600401908161058a9190611189565b5060a082015181600501555050847f48a58c94336eea77ca002e1204f8e95b62ab9f2609d2f697543cb3363db9e1a2858585856040516105cd949392919061125b565b60405180910390a25050505050565b6105e46108c0565b600082815481106105f8576105f7610ee2565b5b90600052602060002090600602016040518060c001604052908160008201548152602001600182015481526020016002820154815260200160038201805461063f90610f40565b80601f016020809104026020016040519081016040528092919081815260200182805461066b90610f40565b80156106b85780601f1061068d576101008083540402835291602001916106b8565b820191906000526020600020905b81548152906001019060200180831161069b57829003601f168201915b505050505081526020016004820180546106d190610f40565b80601f01602080910402602001604051908101604052809291908181526020018280546106fd90610f40565b801561074a5780601f1061071f5761010080835404028352916020019161074a565b820191906000526020600020905b81548152906001019060200180831161072d57829003601f168201915b505050505081526020016005820154815250509050919050565b6000818154811061077457600080fd5b90600052602060002090600602016000915090508060000154908060010154908060020154908060030180546107a990610f40565b80601f01602080910402602001604051908101604052809291908181526020018280546107d590610f40565b80156108225780601f106107f757610100808354040283529160200191610822565b820191906000526020600020905b81548152906001019060200180831161080557829003601f168201915b50505050509080600401805461083790610f40565b80601f016020809104026020016040519081016040528092919081815260200182805461086390610f40565b80156108b05780601f10610885576101008083540402835291602001916108b0565b820191906000526020600020905b81548152906001019060200180831161089357829003601f168201915b5050505050908060050154905086565b6040518060c001604052806000815260200160008152602001600081526020016060815260200160608152602001600081525090565b6000604051905090565b600080fd5b600080fd5b6000819050919050565b61091d8161090a565b811461092857600080fd5b50565b60008135905061093a81610914565b92915050565b60006020828403121561095657610955610900565b5b60006109648482850161092b565b91505092915050565b6109768161090a565b82525050565b600081519050919050565b600082825260208201905092915050565b60005b838110156109b657808201518184015260208101905061099b565b60008484015250505050565b6000601f19601f8301169050919050565b60006109de8261097c565b6109e88185610987565b93506109f8818560208601610998565b610a01816109c2565b840191505092915050565b600060c083016000830151610a24600086018261096d565b506020830151610a37602086018261096d565b506040830151610a4a604086018261096d565b5060608301518482036060860152610a6282826109d3565b91505060808301518482036080860152610a7c82826109d3565b91505060a0830151610a9160a086018261096d565b508091505092915050565b60006020820190508181036000830152610ab68184610a0c565b905092915050565b600081519050919050565b600082825260208201905092915050565b6000819050602082019050919050565b600060c083016000830151610b02600086018261096d565b506020830151610b15602086018261096d565b506040830151610b28604086018261096d565b5060608301518482036060860152610b4082826109d3565b91505060808301518482036080860152610b5a82826109d3565b91505060a0830151610b6f60a086018261096d565b508091505092915050565b6000610b868383610aea565b905092915050565b6000602082019050919050565b6000610ba682610abe565b610bb08185610ac9565b935083602082028501610bc285610ada565b8060005b85811015610bfe5784840389528151610bdf8582610b7a565b9450610bea83610b8e565b925060208a01995050600181019050610bc6565b50829750879550505050505092915050565b60006020820190508181036000830152610c2a8184610b9b565b905092915050565b600080fd5b600080fd5b7f4e487b7100000000000000000000000000000000000000000000000000000000600052604160045260246000fd5b610c74826109c2565b810181811067ffffffffffffffff82111715610c9357610c92610c3c565b5b80604052505050565b6000610ca66108f6565b9050610cb28282610c6b565b919050565b600067ffffffffffffffff821115610cd257610cd1610c3c565b5b610cdb826109c2565b9050602081019050919050565b82818337600083830152505050565b6000610d0a610d0584610cb7565b610c9c565b905082815260208101848484011115610d2657610d25610c37565b5b610d31848285610ce8565b509392505050565b600082601f830112610d4e57610d4d610c32565b5b8135610d5e848260208601610cf7565b91505092915050565b600080600080600060a08688031215610d8357610d82610900565b5b6000610d918882890161092b565b9550506020610da28882890161092b565b9450506040610db38882890161092b565b935050606086013567ffffffffffffffff811115610dd457610dd3610905565b5b610de088828901610d39565b925050608086013567ffffffffffffffff811115610e0157610e00610905565b5b610e0d88828901610d39565b9150509295509295909350565b610e238161090a565b82525050565b600082825260208201905092915050565b6000610e458261097c565b610e4f8185610e29565b9350610e5f818560208601610998565b610e68816109c2565b840191505092915050565b600060c082019050610e886000830189610e1a565b610e956020830188610e1a565b610ea26040830187610e1a565b8181036060830152610eb48186610e3a565b90508181036080830152610ec88185610e3a565b9050610ed760a0830184610e1a565b979650505050505050565b7f4e487b7100000000000000000000000000000000000000000000000000000000600052603260045260246000fd5b7f4e487b7100000000000000000000000000000000000000000000000000000000600052602260045260246000fd5b60006002820490506001821680610f5857607f821691505b602082108103610f6b57610f6a610f11565b5b50919050565b7f47616d6520726573756c74206e6f7420666f756e642e00000000000000000000600082015250565b6000610fa7601683610e29565b9150610fb282610f71565b602082019050919050565b60006020820190508181036000830152610fd681610f9a565b9050919050565b60008190508160005260206000209050919050565b60006020601f8301049050919050565b600082821b905092915050565b60006008830261103f7fffffffffffffffffffffffffffffffffffffffffffffffffffffffffffffffff82611002565b6110498683611002565b95508019841693508086168417925050509392505050565b6000819050919050565b600061108661108161107c8461090a565b611061565b61090a565b9050919050565b6000819050919050565b6110a08361106b565b6110b46110ac8261108d565b84845461100f565b825550505050565b600090565b6110c96110bc565b6110d4818484611097565b505050565b5b818110156110f8576110ed6000826110c1565b6001810190506110da565b5050565b601f82111561113d5761110e81610fdd565b61111784610ff2565b81016020851015611126578190505b61113a61113285610ff2565b8301826110d9565b50505b505050565b600082821c905092915050565b600061116060001984600802611142565b1980831691505092915050565b6000611179838361114f565b9150826002028217905092915050565b6111928261097c565b67ffffffffffffffff8111156111ab576111aa610c3c565b5b6111b58254610f40565b6111c08282856110fc565b600060209050601f8311600181146111f357600084156111e1578287015190505b6111eb858261116d565b865550611253565b601f19841661120186610fdd565b60005b8281101561122957848901518255600182019150602085019450602081019050611204565b868310156112465784890151611242601f89168261114f565b8355505b6001600288020188555050505b505050505050565b60006080820190506112706000830187610e1a565b61127d6020830186610e1a565b818103604083015261128f8185610e3a565b905081810360608301526112a38184610e3a565b90509594505050505056fea26469706673582212207c5ede7983a10826a97b555299e01de94f882e9333591e85f245533d29c6475264736f6c63430008180033",
  "linkReferences": {},
  "deployedLinkReferences": {}
}